:1000000009C02AC015C014C013C012C03CC010C023
:100010000FC00EC011241FBECFE9CDBF20E0A0E667
:10002000B0E001C01D92A436B207E1F737D076C028
:10003000E7CF81E087BB18BA92E297B997EE96B9FD
:1000400013B8A49A90E49BBF85BF1FBC13BE19BE12
:1000500084E089BF789408951F920F920FB60F9293
:1000600011248F93F894B19B04C0C09812BE13BEA4
:1000700003C012BE85E083BF78948F910F900FBEAE
:100080000F901F9018951F920F920FB60F92112488
:10009000C09A0F900FBE0F901F901895CADF30E4E2
:1000A00025B180916000909161006FE170E025D0F2
:1000B0002695820F911D25E0959587952A95E1F764
:1000C000909363008093620090936100809360003E
:1000D0001816190614F0C09A04C08C34910524F047
:1000E000C09812BE1BBEDCCF3BBF8091620086BFB2
:1000F000809162008B5F89BDD3CF0024552704C057
:10010000080E591F880F991F009729F0769567955B
:10011000B8F37105B9F7802D952F0895F894FFCFA6
:00000001FF
